{
  "address": "0x78ca78F2F77dD0C39aB9ED2d9382C3Eb7f2fD1E4",
  "abi": [
    {
      "inputs": [
        {
          "internalType": "contract IRouter",
          "name": "router_",
          "type": "address"
        },
        {
          "internalType": "address",
          "name": "marketing_",
          "type": "address"
        }
      ],
      "stateMutability": "nonpayable",
      "type": "constructor"
    },
    {
      "anonymous": false,
      "inputs": [
        {
          "indexed": true,
          "internalType": "address",
          "name": "owner",
          "type": "address"
        },
        {
          "indexed": true,
          "internalType": "address",
          "name": "spender",
          "type": "address"
        },
        {
          "indexed": false,
          "internalType": "uint256",
          "name": "value",
          "type": "uint256"
        }
      ],
      "name": "Approval",
      "type": "event"
    },
    {
      "anonymous": false,
      "inputs": [
        {
          "indexed": true,
          "internalType": "address",
          "name": "previousOwner",
          "type": "address"
        },
        {
          "indexed": true,
          "internalType": "address",
          "name": "newOwner",
          "type": "address"
        }
      ],
      "name": "OwnershipTransferred",
      "type": "event"
    },
    {
      "anonymous": false,
      "inputs": [
        {
          "indexed": true,
          "internalType": "address",
          "name": "from",
          "type": "address"
        },
        {
          "indexed": true,
          "internalType": "address",
          "name": "to",
          "type": "address"
        },
        {
          "indexed": false,
          "internalType": "uint256",
          "name": "value",
          "type": "uint256"
        }
      ],
      "name": "Transfer",
      "type": "event"
    },
    {
      "inputs": [
        {
          "internalType": "address",
          "name": "owner",
          "type": "address"
        },
        {
          "internalType": "address",
          "name": "spender",
          "type": "address"
        }
      ],
      "name": "allowance",
      "outputs": [
        {
          "internalType": "uint256",
          "name": "",
          "type": "uint256"
        }
      ],
      "stateMutability": "view",
      "type": "function"
    },
    {
      "inputs": [
        {
          "internalType": "address",
          "name": "spender",
          "type": "address"
        },
        {
          "internalType": "uint256",
          "name": "amount",
          "type": "uint256"
        }
      ],
      "name": "approve",
      "outputs": [
        {
          "internalType": "bool",
          "name": "",
          "type": "bool"
        }
      ],
      "stateMutability": "nonpayable",
      "type": "function"
    },
    {
      "inputs": [
        {
          "internalType": "address",
          "name": "account",
          "type": "address"
        }
      ],
      "name": "balanceOf",
      "outputs": [
        {
          "internalType": "uint256",
          "name": "",
          "type": "uint256"
        }
      ],
      "stateMutability": "view",
      "type": "function"
    },
    {
      "inputs": [],
      "name": "buyTax",
      "outputs": [
        {
          "internalType": "uint256",
          "name": "",
          "type": "uint256"
        }
      ],
      "stateMutability": "view",
      "type": "function"
    },
    {
      "inputs": [],
      "name": "deadAddr",
      "outputs": [
        {
          "internalType": "address",
          "name": "",
          "type": "address"
        }
      ],
      "stateMutability": "view",
      "type": "function"
    },
    {
      "inputs": [],
      "name": "decimals",
      "outputs": [
        {
          "internalType": "uint8",
          "name": "",
          "type": "uint8"
        }
      ],
      "stateMutability": "view",
      "type": "function"
    },
    {
      "inputs": [
        {
          "internalType": "address",
          "name": "spender",
          "type": "address"
        },
        {
          "internalType": "uint256",
          "name": "subtractedValue",
          "type": "uint256"
        }
      ],
      "name": "decreaseAllowance",
      "outputs": [
        {
          "internalType": "bool",
          "name": "",
          "type": "bool"
        }
      ],
      "stateMutability": "nonpayable",
      "type": "function"
    },
    {
      "inputs": [
        {
          "internalType": "address",
          "name": "account",
          "type": "address"
        },
        {
          "internalType": "bool",
          "name": "isExcluded",
          "type": "bool"
        }
      ],
      "name": "excludeFromTax",
      "outputs": [],
      "stateMutability": "nonpayable",
      "type": "function"
    },
    {
      "inputs": [
        {
          "internalType": "address",
          "name": "spender",
          "type": "address"
        },
        {
          "internalType": "uint256",
          "name": "addedValue",
          "type": "uint256"
        }
      ],
      "name": "increaseAllowance",
      "outputs": [
        {
          "internalType": "bool",
          "name": "",
          "type": "bool"
        }
      ],
      "stateMutability": "nonpayable",
      "type": "function"
    },
    {
      "inputs": [
        {
          "internalType": "address",
          "name": "account",
          "type": "address"
        }
      ],
      "name": "isExcludedFromTax",
      "outputs": [
        {
          "internalType": "bool",
          "name": "",
          "type": "bool"
        }
      ],
      "stateMutability": "view",
      "type": "function"
    },
    {
      "inputs": [],
      "name": "marketing",
      "outputs": [
        {
          "internalType": "address",
          "name": "",
          "type": "address"
        }
      ],
      "stateMutability": "view",
      "type": "function"
    },
    {
      "inputs": [],
      "name": "name",
      "outputs": [
        {
          "internalType": "string",
          "name": "",
          "type": "string"
        }
      ],
      "stateMutability": "view",
      "type": "function"
    },
    {
      "inputs": [],
      "name": "owner",
      "outputs": [
        {
          "internalType": "address",
          "name": "",
          "type": "address"
        }
      ],
      "stateMutability": "view",
      "type": "function"
    },
    {
      "inputs": [],
      "name": "renounceOwnership",
      "outputs": [],
      "stateMutability": "nonpayable",
      "type": "function"
    },
    {
      "inputs": [],
      "name": "router",
      "outputs": [
        {
          "internalType": "contract IRouter",
          "name": "",
          "type": "address"
        }
      ],
      "stateMutability": "view",
      "type": "function"
    },
    {
      "inputs": [],
      "name": "sellTax",
      "outputs": [
        {
          "internalType": "uint256",
          "name": "",
          "type": "uint256"
        }
      ],
      "stateMutability": "view",
      "type": "function"
    },
    {
      "inputs": [],
      "name": "swapPair",
      "outputs": [
        {
          "internalType": "address",
          "name": "",
          "type": "address"
        }
      ],
      "stateMutability": "view",
      "type": "function"
    },
    {
      "inputs": [],
      "name": "symbol",
      "outputs": [
        {
          "internalType": "string",
          "name": "",
          "type": "string"
        }
      ],
      "stateMutability": "view",
      "type": "function"
    },
    {
      "inputs": [],
      "name": "totalSupply",
      "outputs": [
        {
          "internalType": "uint256",
          "name": "",
          "type": "uint256"
        }
      ],
      "stateMutability": "view",
      "type": "function"
    },
    {
      "inputs": [
        {
          "internalType": "address",
          "name": "to",
          "type": "address"
        },
        {
          "internalType": "uint256",
          "name": "amount",
          "type": "uint256"
        }
      ],
      "name": "transfer",
      "outputs": [
        {
          "internalType": "bool",
          "name": "",
          "type": "bool"
        }
      ],
      "stateMutability": "nonpayable",
      "type": "function"
    },
    {
      "inputs": [
        {
          "internalType": "address",
          "name": "from",
          "type": "address"
        },
        {
          "internalType": "address",
          "name": "to",
          "type": "address"
        },
        {
          "internalType": "uint256",
          "name": "amount",
          "type": "uint256"
        }
      ],
      "name": "transferFrom",
      "outputs": [
        {
          "internalType": "bool",
          "name": "",
          "type": "bool"
        }
      ],
      "stateMutability": "nonpayable",
      "type": "function"
    },
    {
      "inputs": [
        {
          "internalType": "address",
          "name": "newOwner",
          "type": "address"
        }
      ],
      "name": "transferOwnership",
      "outputs": [],
      "stateMutability": "nonpayable",
      "type": "function"
    },
    {
      "inputs": [
        {
          "internalType": "uint256",
          "name": "_buyTax",
          "type": "uint256"
        },
        {
          "internalType": "uint256",
          "name": "_sellTax",
          "type": "uint256"
        }
      ],
      "name": "updateTax",
      "outputs": [],
      "stateMutability": "nonpayable",
      "type": "function"
    },
    {
      "inputs": [],
      "name": "zeroAddr",
      "outputs": [
        {
          "internalType": "address",
          "name": "",
          "type": "address"
        }
      ],
      "stateMutability": "view",
      "type": "function"
    },
    {
      "stateMutability": "payable",
      "type": "receive"
    }
  ],
  "transactionHash": "0xa5e44702ddfba1c90a42ba3fef8a44b6289a9f12b16760417779302c9a3bb40c",
  "args": [
    "0x10ed43c718714eb63d5aa57b78b54704e256024e",
    "0xE193F09e19f536dAC5A69513DD4505475C29bdec"
  ],
  "numDeployments": 1,
  "solcInputHash": "2fa87777ba7964e84c65b647cc32d07a",
  "bytecode": "0x60a06040526d14b5253145b397d654510000000060095561271060095460056200002a919062000604565b62000036919062000626565b600a55600a600b55600a600c553480156200005057600080fd5b5060405162001b1038038062001b10833981016040819052620000739162000662565b6040518060400160405280600c81526020016b53636f6f6279446f6f496e7560a01b8152506040518060400160405280600681526020016553636f6f627960d01b8152508160039081620000c8919062000745565b506004620000d7828262000745565b505050620000f4620000ee6200031160201b60201c565b62000315565b6001600160a01b03821660808190526040805163c45a015560e01b815290516000929163c45a01559160048083019260209291908290030181865afa15801562000142573d6000803e3d6000fd5b505050506040513d601f19601f8201168201806040525081019062000168919062000811565b6001600160a01b031663c9c65396306080516001600160a01b031663ad5c46486040518163ffffffff1660e01b8152600401602060405180830381865afa158015620001b8573d6000803e3d6000fd5b505050506040513d601f19601f82011682018060405250810190620001de919062000811565b6040516001600160e01b031960e085901b1681526001600160a01b039283166004820152911660248201526044016020604051808303816000875af11580156200022c573d6000803e3d6000fd5b505050506040513d601f19601f8201168201806040525081019062000252919062000811565b600680546001600160a01b038084166001600160a01b031992831617909255600780549286169290911682179055600f600b556011600c559091506200029a90600162000367565b620002b9620002b16005546001600160a01b031690565b600162000367565b620002c630600162000367565b620002d561dead600162000367565b608051620002e89030906000196200039c565b62000308620002ff6005546001600160a01b031690565b600954620004c8565b50505062000854565b3390565b600580546001600160a01b038381166001600160a01b0319831681179093556040519116919082907f8be0079c531659141344cd1fd0a4f28419497f9722a3daafe3b4186f6b6457e090600090a35050565b620003716200058b565b6001600160a01b03919091166000908152600d60205260409020805460ff1916911515919091179055565b6001600160a01b038316620004045760405162461bcd60e51b8152602060048201526024808201527f45524332303a20617070726f76652066726f6d20746865207a65726f206164646044820152637265737360e01b60648201526084015b60405180910390fd5b6001600160a01b038216620004675760405162461bcd60e51b815260206004820152602260248201527f45524332303a20617070726f766520746f20746865207a65726f206164647265604482015261737360f01b6064820152608401620003fb565b6001600160a01b0383811660008181526001602090815260408083209487168084529482529182902085905590518481527f8c5be1e5ebec7d5bd14f71427d1e84f3dd0314c0f7b2291e5b200ac8c7c3b925910160405180910390a3505050565b6001600160a01b038216620005205760405162461bcd60e51b815260206004820152601f60248201527f45524332303a206d696e7420746f20746865207a65726f2061646472657373006044820152606401620003fb565b806002600082825462000534919062000838565b90915550506001600160a01b038216600081815260208181526040808320805486019055518481527fddf252ad1be2c89b69c2b068fc378daa952ba7f163c4a11628f55a4df523b3ef910160405180910390a35050565b6005546001600160a01b03163314620005e75760405162461bcd60e51b815260206004820181905260248201527f4f776e61626c653a2063616c6c6572206973206e6f7420746865206f776e65726044820152606401620003fb565b565b505050565b634e487b7160e01b600052601160045260246000fd5b6000816000190483118215151615620006215762000621620005ee565b500290565b6000826200064457634e487b7160e01b600052601260045260246000fd5b500490565b6001600160a01b03811681146200065f57600080fd5b50565b600080604083850312156200067657600080fd5b8251620006838162000649565b6020840151909250620006968162000649565b809150509250929050565b634e487b7160e01b600052604160045260246000fd5b600181811c90821680620006cc57607f821691505b602082108103620006ed57634e487b7160e01b600052602260045260246000fd5b50919050565b601f821115620005e957600081815260208120601f850160051c810160208610156200071c5750805b601f850160051c820191505b818110156200073d5782815560010162000728565b505050505050565b81516001600160401b03811115620007615762000761620006a1565b6200077981620007728454620006b7565b84620006f3565b602080601f831160018114620007b15760008415620007985750858301515b600019600386901b1c1916600185901b1785556200073d565b600085815260208120601f198616915b82811015620007e257888601518255948401946001909101908401620007c1565b5085821015620008015787850151600019600388901b60f8161c191681555b5050505050600190811b01905550565b6000602082840312156200082457600080fd5b8151620008318162000649565b9392505050565b808201808211156200084e576200084e620005ee565b92915050565b6080516112926200087e6000396000818161046b01528181610da20152610e5d01526112926000f3fe60806040526004361061014f5760003560e01c80638da5cb5b116100b6578063c6a306471161006f578063c6a30647146103aa578063cb4ca631146103ca578063cc1776d314610403578063dd62ed3e14610419578063f2fde38b14610439578063f887ea401461045957600080fd5b80638da5cb5b1461030c57806395d89b411461032a578063a457c2d71461033f578063a59625241461035f578063a86f42cb14610375578063a9059cbb1461038a57600080fd5b80632f37aa6d116101085780632f37aa6d1461024d578063313ce5671461026f578063395093511461028b5780634f7041a5146102ab57806370a08231146102c1578063715018a6146102f757600080fd5b806306fdde031461015b578063095ea7b31461018657806318160ddd146101b657806323b872dd146101d557806326991cc8146101f55780632d3e474a1461022d57600080fd5b3661015657005b600080fd5b34801561016757600080fd5b5061017061048d565b60405161017d9190610efe565b60405180910390f35b34801561019257600080fd5b506101a66101a1366004610f61565b61051f565b604051901515815260200161017d565b3480156101c257600080fd5b506002545b60405190815260200161017d565b3480156101e157600080fd5b506101a66101f0366004610f8d565b610539565b34801561020157600080fd5b50600654610215906001600160a01b031681565b6040516001600160a01b03909116815260200161017d565b34801561023957600080fd5b50600754610215906001600160a01b031681565b34801561025957600080fd5b5061026d610268366004610fce565b61055d565b005b34801561027b57600080fd5b506040516012815260200161017d565b34801561029757600080fd5b506101a66102a6366004610f61565b6105be565b3480156102b757600080fd5b506101c7600b5481565b3480156102cd57600080fd5b506101c76102dc366004610ff0565b6001600160a01b031660009081526020819052604090205490565b34801561030357600080fd5b5061026d6105e0565b34801561031857600080fd5b506005546001600160a01b0316610215565b34801561033657600080fd5b506101706105f4565b34801561034b57600080fd5b506101a661035a366004610f61565b610603565b34801561036b57600080fd5b5061021561dead81565b34801561038157600080fd5b50610215600081565b34801561039657600080fd5b506101a66103a5366004610f61565b61067e565b3480156103b657600080fd5b5061026d6103c536600461100d565b61068c565b3480156103d657600080fd5b506101a66103e5366004610ff0565b6001600160a01b03166000908152600d602052604090205460ff1690565b34801561040f57600080fd5b506101c7600c5481565b34801561042557600080fd5b506101c761043436600461104b565b6106bf565b34801561044557600080fd5b5061026d610454366004610ff0565b6106ea565b34801561046557600080fd5b506102157f000000000000000000000000000000000000000000000000000000000000000081565b60606003805461049c90611079565b80601f01602080910402602001604051908101604052809291908181526020018280546104c890611079565b80156105155780601f106104ea57610100808354040283529160200191610515565b820191906000526020600020905b8154815290600101906020018083116104f857829003601f168201915b5050505050905090565b60003361052d818585610763565b60019150505b92915050565b600033610547858285610887565b610552858585610901565b506001949350505050565b610565610b75565b60148211158015610577575060148111155b6105b35760405162461bcd60e51b81526020600482015260086024820152670e8dede40d0d2ced60c31b60448201526064015b60405180910390fd5b600b91909155600c55565b60003361052d8185856105d183836106bf565b6105db91906110c9565b610763565b6105e8610b75565b6105f26000610bcf565b565b60606004805461049c90611079565b6000338161061182866106bf565b9050838110156106715760405162461bcd60e51b815260206004820152602560248201527f45524332303a2064656372656173656420616c6c6f77616e63652062656c6f77604482015264207a65726f60d81b60648201526084016105aa565b6105528286868403610763565b60003361052d818585610901565b610694610b75565b6001600160a01b03919091166000908152600d60205260409020805460ff1916911515919091179055565b6001600160a01b03918216600090815260016020908152604080832093909416825291909152205490565b6106f2610b75565b6001600160a01b0381166107575760405162461bcd60e51b815260206004820152602660248201527f4f776e61626c653a206e6577206f776e657220697320746865207a65726f206160448201526564647265737360d01b60648201526084016105aa565b61076081610bcf565b50565b6001600160a01b0383166107c55760405162461bcd60e51b8152602060048201526024808201527f45524332303a20617070726f76652066726f6d20746865207a65726f206164646044820152637265737360e01b60648201526084016105aa565b6001600160a01b0382166108265760405162461bcd60e51b815260206004820152602260248201527f45524332303a20617070726f766520746f20746865207a65726f206164647265604482015261737360f01b60648201526084016105aa565b6001600160a01b0383811660008181526001602090815260408083209487168084529482529182902085905590518481527f8c5be1e5ebec7d5bd14f71427d1e84f3dd0314c0f7b2291e5b200ac8c7c3b925910160405180910390a3505050565b600061089384846106bf565b905060001981146108fb57818110156108ee5760405162461bcd60e51b815260206004820152601d60248201527f45524332303a20696e73756666696369656e7420616c6c6f77616e636500000060448201526064016105aa565b6108fb8484848403610763565b50505050565b6001600160a01b0383166109275760405162461bcd60e51b81526004016105aa906110dc565b6001600160a01b03821661094d5760405162461bcd60e51b81526004016105aa90611121565b806000036109665761096183836000610c21565b505050565b60085415801561098357506006546001600160a01b038381169116145b1561099157436008556109bf565b60006008541180156109af57506008546109ac9060036110c9565b43115b156109bf57600a600b819055600c555b30600090815260208190526040902054600a54811080159081906109f157506006546001600160a01b03868116911614155b8015610a075750600654600160a01b900460ff16155b8015610a2c57506001600160a01b0385166000908152600d602052604090205460ff16155b8015610a5157506001600160a01b0384166000908152600d602052604090205460ff16155b15610a80576006805460ff60a01b1916600160a01b179055610a7282610d4b565b6006805460ff60a01b191690555b6001600160a01b0385166000908152600d602052604090205460019060ff1680610ac257506001600160a01b0385166000908152600d602052604090205460ff165b15610acb575060005b60008115610b61576006546001600160a01b0390811690871603610b1057610b096064610b03600c5488610ed390919063ffffffff16565b90610ee6565b9050610b43565b6006546001600160a01b0390811690881603610b4357610b406064610b03600b5488610ed390919063ffffffff16565b90505b8015610b6157610b54873083610c21565b610b5e8582610ef2565b94505b610b6c878787610c21565b50505050505050565b6005546001600160a01b031633146105f25760405162461bcd60e51b815260206004820181905260248201527f4f776e61626c653a2063616c6c6572206973206e6f7420746865206f776e657260448201526064016105aa565b600580546001600160a01b038381166001600160a01b0319831681179093556040519116919082907f8be0079c531659141344cd1fd0a4f28419497f9722a3daafe3b4186f6b6457e090600090a35050565b6001600160a01b038316610c475760405162461bcd60e51b81526004016105aa906110dc565b6001600160a01b038216610c6d5760405162461bcd60e51b81526004016105aa90611121565b6001600160a01b03831660009081526020819052604090205481811015610ce55760405162461bcd60e51b815260206004820152602660248201527f45524332303a207472616e7366657220616d6f756e7420657863656564732062604482015265616c616e636560d01b60648201526084016105aa565b6001600160a01b03848116600081815260208181526040808320878703905593871680835291849020805487019055925185815290927fddf252ad1be2c89b69c2b068fc378daa952ba7f163c4a11628f55a4df523b3ef910160405180910390a36108fb565b6040805160028082526060820183526000926020830190803683370190505090503081600081518110610d8057610d80611164565b60200260200101906001600160a01b031690816001600160a01b0316815250507f00000000000000000000000000000000000000000000000000000000000000006001600160a01b031663ad5c46486040518163ffffffff1660e01b8152600401602060405180830381865afa158015610dfe573d6000803e3d6000fd5b505050506040513d601f19601f82011682018060405250810190610e22919061117a565b81600181518110610e3557610e35611164565b6001600160a01b03928316602091820292909201015260075460405163791ac94760e01b81527f000000000000000000000000000000000000000000000000000000000000000083169263791ac94792610e9d92879260009288929116904290600401611197565b600060405180830381600087803b158015610eb757600080fd5b505af1158015610ecb573d6000803e3d6000fd5b505050505050565b6000610edf8284611208565b9392505050565b6000610edf8284611227565b6000610edf8284611249565b600060208083528351808285015260005b81811015610f2b57858101830151858201604001528201610f0f565b506000604082860101526040601f19601f8301168501019250505092915050565b6001600160a01b038116811461076057600080fd5b60008060408385031215610f7457600080fd5b8235610f7f81610f4c565b946020939093013593505050565b600080600060608486031215610fa257600080fd5b8335610fad81610f4c565b92506020840135610fbd81610f4c565b929592945050506040919091013590565b60008060408385031215610fe157600080fd5b50508035926020909101359150565b60006020828403121561100257600080fd5b8135610edf81610f4c565b6000806040838503121561102057600080fd5b823561102b81610f4c565b91506020830135801515811461104057600080fd5b809150509250929050565b6000806040838503121561105e57600080fd5b823561106981610f4c565b9150602083013561104081610f4c565b600181811c9082168061108d57607f821691505b6020821081036110ad57634e487b7160e01b600052602260045260246000fd5b50919050565b634e487b7160e01b600052601160045260246000fd5b80820180821115610533576105336110b3565b60208082526025908201527f45524332303a207472616e736665722066726f6d20746865207a65726f206164604082015264647265737360d81b606082015260800190565b60208082526023908201527f45524332303a207472616e7366657220746f20746865207a65726f206164647260408201526265737360e81b606082015260800190565b634e487b7160e01b600052603260045260246000fd5b60006020828403121561118c57600080fd5b8151610edf81610f4c565b600060a082018783526020878185015260a0604085015281875180845260c086019150828901935060005b818110156111e75784516001600160a01b0316835293830193918301916001016111c2565b50506001600160a01b03969096166060850152505050608001529392505050565b6000816000190483118215151615611222576112226110b3565b500290565b60008261124457634e487b7160e01b600052601260045260246000fd5b500490565b81810381811115610533576105336110b356fea2646970667358221220de72a3b08642762af1b256627e880c93f9709fb19f289abf67223b77739aaf6664736f6c63430008100033",
  "devdoc": {
    "kind": "dev",
    "methods": {
      "allowance(address,address)": {
        "details": "See {IERC20-allowance}."
      },
      "approve(address,uint256)": {
        "details": "See {IERC20-approve}. NOTE: If `amount` is the maximum `uint256`, the allowance is not updated on `transferFrom`. This is semantically equivalent to an infinite approval. Requirements: - `spender` cannot be the zero address."
      },
      "balanceOf(address)": {
        "details": "See {IERC20-balanceOf}."
      },
      "decimals()": {
        "details": "Returns the number of decimals used to get its user representation. For example, if `decimals` equals `2`, a balance of `505` tokens should be displayed to a user as `5.05` (`505 / 10 ** 2`). Tokens usually opt for a value of 18, imitating the relationship between Ether and Wei. This is the value {ERC20} uses, unless this function is overridden; NOTE: This information is only used for _display_ purposes: it in no way affects any of the arithmetic of the contract, including {IERC20-balanceOf} and {IERC20-transfer}."
      },
      "decreaseAllowance(address,uint256)": {
        "details": "Atomically decreases the allowance granted to `spender` by the caller. This is an alternative to {approve} that can be used as a mitigation for problems described in {IERC20-approve}. Emits an {Approval} event indicating the updated allowance. Requirements: - `spender` cannot be the zero address. - `spender` must have allowance for the caller of at least `subtractedValue`."
      },
      "increaseAllowance(address,uint256)": {
        "details": "Atomically increases the allowance granted to `spender` by the caller. This is an alternative to {approve} that can be used as a mitigation for problems described in {IERC20-approve}. Emits an {Approval} event indicating the updated allowance. Requirements: - `spender` cannot be the zero address."
      },
      "name()": {
        "details": "Returns the name of the token."
      },
      "owner()": {
        "details": "Returns the address of the current owner."
      },
      "renounceOwnership()": {
        "details": "Leaves the contract without owner. It will not be possible to call `onlyOwner` functions anymore. Can only be called by the current owner. NOTE: Renouncing ownership will leave the contract without an owner, thereby removing any functionality that is only available to the owner."
      },
      "symbol()": {
        "details": "Returns the symbol of the token, usually a shorter version of the name."
      },
      "totalSupply()": {
        "details": "See {IERC20-totalSupply}."
      },
      "transfer(address,uint256)": {
        "details": "See {IERC20-transfer}. Requirements: - `to` cannot be the zero address. - the caller must have a balance of at least `amount`."
      },
      "transferFrom(address,address,uint256)": {
        "details": "See {IERC20-transferFrom}. Emits an {Approval} event indicating the updated allowance. This is not required by the EIP. See the note at the beginning of {ERC20}. NOTE: Does not update the allowance if the current allowance is the maximum `uint256`. Requirements: - `from` and `to` cannot be the zero address. - `from` must have a balance of at least `amount`. - the caller must have allowance for ``from``'s tokens of at least `amount`."
      },
      "transferOwnership(address)": {
        "details": "Transfers ownership of the contract to a new account (`newOwner`). Can only be called by the current owner."
      }
    },
    "version": 1
  },
  "userdoc": {
    "kind": "user",
    "methods": {},
    "version": 1
  },
  "storageLayout": {
    "storage": [
      {
        "astId": 128,
        "contract": "contracts/ScoobyInu.sol:ScoobyInu",
        "label": "_balances",
        "offset": 0,
        "slot": "0",
        "type": "t_mapping(t_address,t_uint256)"
      },
      {
        "astId": 134,
        "contract": "contracts/ScoobyInu.sol:ScoobyInu",
        "label": "_allowances",
        "offset": 0,
        "slot": "1",
        "type": "t_mapping(t_address,t_mapping(t_address,t_uint256))"
      },
      {
        "astId": 136,
        "contract": "contracts/ScoobyInu.sol:ScoobyInu",
        "label": "_totalSupply",
        "offset": 0,
        "slot": "2",
        "type": "t_uint256"
      },
      {
        "astId": 138,
        "contract": "contracts/ScoobyInu.sol:ScoobyInu",
        "label": "_name",
        "offset": 0,
        "slot": "3",
        "type": "t_string_storage"
      },
      {
        "astId": 140,
        "contract": "contracts/ScoobyInu.sol:ScoobyInu",
        "label": "_symbol",
        "offset": 0,
        "slot": "4",
        "type": "t_string_storage"
      },
      {
        "astId": 7,
        "contract": "contracts/ScoobyInu.sol:ScoobyInu",
        "label": "_owner",
        "offset": 0,
        "slot": "5",
        "type": "t_address"
      },
      {
        "astId": 1185,
        "contract": "contracts/ScoobyInu.sol:ScoobyInu",
        "label": "swapPair",
        "offset": 0,
        "slot": "6",
        "type": "t_address"
      },
      {
        "astId": 1202,
        "contract": "contracts/ScoobyInu.sol:ScoobyInu",
        "label": "swapping",
        "offset": 20,
        "slot": "6",
        "type": "t_bool"
      },
      {
        "astId": 1204,
        "contract": "contracts/ScoobyInu.sol:ScoobyInu",
        "label": "marketing",
        "offset": 0,
        "slot": "7",
        "type": "t_address"
      },
      {
        "astId": 1206,
        "contract": "contracts/ScoobyInu.sol:ScoobyInu",
        "label": "_firstLiquidityBlock",
        "offset": 0,
        "slot": "8",
        "type": "t_uint256"
      },
      {
        "astId": 1215,
        "contract": "contracts/ScoobyInu.sol:ScoobyInu",
        "label": "supply",
        "offset": 0,
        "slot": "9",
        "type": "t_uint256"
      },
      {
        "astId": 1222,
        "contract": "contracts/ScoobyInu.sol:ScoobyInu",
        "label": "transferTaxAt",
        "offset": 0,
        "slot": "10",
        "type": "t_uint256"
      },
      {
        "astId": 1225,
        "contract": "contracts/ScoobyInu.sol:ScoobyInu",
        "label": "buyTax",
        "offset": 0,
        "slot": "11",
        "type": "t_uint256"
      },
      {
        "astId": 1228,
        "contract": "contracts/ScoobyInu.sol:ScoobyInu",
        "label": "sellTax",
        "offset": 0,
        "slot": "12",
        "type": "t_uint256"
      },
      {
        "astId": 1232,
        "contract": "contracts/ScoobyInu.sol:ScoobyInu",
        "label": "_isExcludedFromTax",
        "offset": 0,
        "slot": "13",
        "type": "t_mapping(t_address,t_bool)"
      }
    ],
    "types": {
      "t_address": {
        "encoding": "inplace",
        "label": "address",
        "numberOfBytes": "20"
      },
      "t_bool": {
        "encoding": "inplace",
        "label": "bool",
        "numberOfBytes": "1"
      },
      "t_mapping(t_address,t_bool)": {
        "encoding": "mapping",
        "key": "t_address",
        "label": "mapping(address => bool)",
        "numberOfBytes": "32",
        "value": "t_bool"
      },
      "t_mapping(t_address,t_mapping(t_address,t_uint256))": {
        "encoding": "mapping",
        "key": "t_address",
        "label": "mapping(address => mapping(address => uint256))",
        "numberOfBytes": "32",
        "value": "t_mapping(t_address,t_uint256)"
      },
      "t_mapping(t_address,t_uint256)": {
        "encoding": "mapping",
        "key": "t_address",
        "label": "mapping(address => uint256)",
        "numberOfBytes": "32",
        "value": "t_uint256"
      },
      "t_string_storage": {
        "encoding": "bytes",
        "label": "string",
        "numberOfBytes": "32"
      },
      "t_uint256": {
        "encoding": "inplace",
        "label": "uint256",
        "numberOfBytes": "32"
      }
    }
  }
}